{
  "_format": "hh-sol-artifact-1",
  "contractName": "EscrowFactory",
  "sourceName": "contracts/Escrow.sol",
  "abi": [
    {
      "anonymous": false,
      "inputs": [
        {
          "indexed": false,
          "internalType": "address",
          "name": "creator",
          "type": "address"
        },
        {
          "indexed": false,
          "internalType": "string",
          "name": "_title",
          "type": "string"
        },
        {
          "indexed": false,
          "internalType": "string",
          "name": "_description",
          "type": "string"
        },
        {
          "indexed": false,
          "internalType": "uint256",
          "name": "_amountInUsd",
          "type": "uint256"
        },
        {
          "indexed": false,
          "internalType": "string",
          "name": "_image",
          "type": "string"
        },
        {
          "indexed": false,
          "internalType": "string",
          "name": "_address",
          "type": "string"
        }
      ],
      "name": "newEscrow",
      "type": "event"
    },
    {
      "inputs": [],
      "name": "getListings",
      "outputs": [
        {
          "internalType": "contract Escrow[]",
          "name": "",
          "type": "address[]"
        }
      ],
      "stateMutability": "view",
      "type": "function"
    },
    {
      "inputs": [
        {
          "internalType": "uint256",
          "name": "",
          "type": "uint256"
        }
      ],
      "name": "listings",
      "outputs": [
        {
          "internalType": "contract Escrow",
          "name": "",
          "type": "address"
        }
      ],
      "stateMutability": "view",
      "type": "function"
    },
    {
      "inputs": [
        {
          "internalType": "string",
          "name": "_title",
          "type": "string"
        },
        {
          "internalType": "string",
          "name": "_description",
          "type": "string"
        },
        {
          "internalType": "uint256",
          "name": "_amountInUsd",
          "type": "uint256"
        },
        {
          "internalType": "string",
          "name": "_image",
          "type": "string"
        },
        {
          "internalType": "string",
          "name": "_address",
          "type": "string"
        }
      ],
      "name": "newListing",
      "outputs": [
        {
          "internalType": "address",
          "name": "",
          "type": "address"
        }
      ],
      "stateMutability": "nonpayable",
      "type": "function"
    },
    {
      "inputs": [],
      "name": "noOfListings",
      "outputs": [
        {
          "internalType": "uint256",
          "name": "",
          "type": "uint256"
        }
      ],
      "stateMutability": "view",
      "type": "function"
    }
  ],
  "bytecode": "0x608060405234801561001057600080fd5b506001600081905550612ac1806100286000396000f3fe60806040523480156200001157600080fd5b5060043610620000525760003560e01c806305e762821462000057578063bf1bd3ff1462000079578063de74e57b14620000af578063f1b2d6a314620000e5575b600080fd5b6200006162000107565b604051620000709190620003dc565b60405180910390f35b620000976004803603810190620000919190620005a0565b6200010d565b604051620000a69190620006e9565b60405180910390f35b620000cd6004803603810190620000c7919062000706565b62000287565b604051620000dc9190620007a3565b60405180910390f35b620000ef620002c7565b604051620000fe91906200088e565b60405180910390f35b60025481565b60006200011962000357565b60008686868633876040516200012f90620003b3565b62000140969594939291906200093b565b604051809103906000f0801580156200015d573d6000803e3d6000fd5b5090506001819080600181540180825580915050600190039060005260206000200160009091909190916101000a81548173ffffffffffffffffffffffffffffffffffffffff021916908373ffffffffffffffffffffffffffffffffffffffff16021790555060026000815480929190620001d890620009f3565b91905055507f6a5744407aa2960a0c2b3dbf923e0b3eb525292fac2302007ab104f1219beeb7338888888888604051620002189695949392919062000a40565b60405180910390a160018060025462000232919062000ac9565b8154811062000246576200024562000b04565b5b9060005260206000200160009054906101000a900473ffffffffffffffffffffffffffffffffffffffff169150506200027e620003a9565b95945050505050565b600181815481106200029857600080fd5b906000526020600020016000915054906101000a900473ffffffffffffffffffffffffffffffffffffffff1681565b606060018054806020026020016040519081016040528092919081815260200182805480156200034d57602002820191906000526020600020905b8160009054906101000a900473ffffffffffffffffffffffffffffffffffffffff1673ffffffffffffffffffffffffffffffffffffffff168152602001906001019080831162000302575b5050505050905090565b6002600054036200039f576040517f08c379a0000000000000000000000000000000000000000000000000000000008152600401620003969062000b83565b60405180910390fd5b6002600081905550565b6001600081905550565b611ee68062000ba683390190565b6000819050919050565b620003d681620003c1565b82525050565b6000602082019050620003f36000830184620003cb565b92915050565b6000604051905090565b600080fd5b600080fd5b600080fd5b600080fd5b6000601f19601f8301169050919050565b7f4e487b7100000000000000000000000000000000000000000000000000000000600052604160045260246000fd5b620004628262000417565b810181811067ffffffffffffffff8211171562000484576200048362000428565b5b80604052505050565b600062000499620003f9565b9050620004a7828262000457565b919050565b600067ffffffffffffffff821115620004ca57620004c962000428565b5b620004d58262000417565b9050602081019050919050565b82818337600083830152505050565b6000620005086200050284620004ac565b6200048d565b90508281526020810184848401111562000527576200052662000412565b5b62000534848285620004e2565b509392505050565b600082601f8301126200055457620005536200040d565b5b813562000566848260208601620004f1565b91505092915050565b6200057a81620003c1565b81146200058657600080fd5b50565b6000813590506200059a816200056f565b92915050565b600080600080600060a08688031215620005bf57620005be62000403565b5b600086013567ffffffffffffffff811115620005e057620005df62000408565b5b620005ee888289016200053c565b955050602086013567ffffffffffffffff81111562000612576200061162000408565b5b62000620888289016200053c565b9450506040620006338882890162000589565b935050606086013567ffffffffffffffff81111562000657576200065662000408565b5b62000665888289016200053c565b925050608086013567ffffffffffffffff81111562000689576200068862000408565b5b62000697888289016200053c565b9150509295509295909350565b600073ffffffffffffffffffffffffffffffffffffffff82169050919050565b6000620006d182620006a4565b9050919050565b620006e381620006c4565b82525050565b6000602082019050620007006000830184620006d8565b92915050565b6000602082840312156200071f576200071e62000403565b5b60006200072f8482850162000589565b91505092915050565b6000819050919050565b6000620007636200075d6200075784620006a4565b62000738565b620006a4565b9050919050565b6000620007778262000742565b9050919050565b60006200078b826200076a565b9050919050565b6200079d816200077e565b82525050565b6000602082019050620007ba600083018462000792565b92915050565b600081519050919050565b600082825260208201905092915050565b6000819050602082019050919050565b620007f7816200077e565b82525050565b60006200080b8383620007ec565b60208301905092915050565b6000602082019050919050565b60006200083182620007c0565b6200083d8185620007cb565b93506200084a83620007dc565b8060005b8381101562000881578151620008658882620007fd565b9750620008728362000817565b9250506001810190506200084e565b5085935050505092915050565b60006020820190508181036000830152620008aa818462000824565b905092915050565b600081519050919050565b600082825260208201905092915050565b60005b83811015620008ee578082015181840152602081019050620008d1565b60008484015250505050565b60006200090782620008b2565b620009138185620008bd565b935062000925818560208601620008ce565b620009308162000417565b840191505092915050565b600060c0820190508181036000830152620009578189620008fa565b905081810360208301526200096d8188620008fa565b90506200097e6040830187620003cb565b8181036060830152620009928186620008fa565b9050620009a36080830185620006d8565b81810360a0830152620009b78184620008fa565b9050979650505050505050565b7f4e487b7100000000000000000000000000000000000000000000000000000000600052601160045260246000fd5b600062000a0082620003c1565b91507fffffffffffffffffffffffffffffffffffffffffffffffffffffffffffffffff820362000a355762000a34620009c4565b5b600182019050919050565b600060c08201905062000a576000830189620006d8565b818103602083015262000a6b8188620008fa565b9050818103604083015262000a818187620008fa565b905062000a926060830186620003cb565b818103608083015262000aa68185620008fa565b905081810360a083015262000abc8184620008fa565b9050979650505050505050565b600062000ad682620003c1565b915062000ae383620003c1565b925082820390508181111562000afe5762000afd620009c4565b5b92915050565b7f4e487b7100000000000000000000000000000000000000000000000000000000600052603260045260246000fd5b7f5265656e7472616e637947756172643a207265656e7472616e742063616c6c00600082015250565b600062000b6b601f83620008bd565b915062000b788262000b33565b602082019050919050565b6000602082019050818103600083015262000b9e8162000b5c565b905091905056fe60806040523480156200001157600080fd5b5060405162001ee638038062001ee683398181016040528101906200003791906200036a565b600160008190555081600160006101000a81548173ffffffffffffffffffffffffffffffffffffffff021916908373ffffffffffffffffffffffffffffffffffffffff1602179055508560029081620000919190620006c3565b508460039081620000a39190620006c3565b50836004819055508260059081620000bc9190620006c3565b50426008819055508060099081620000d59190620006c3565b5073694aa1769357215de4fac081bf1f309adc325306600a60006101000a81548173ffffffffffffffffffffffffffffffffffffffff021916908373ffffffffffffffffffffffffffffffffffffffff160217905550505050505050620007aa565b6000604051905090565b600080fd5b600080fd5b600080fd5b600080fd5b6000601f19601f8301169050919050565b7f4e487b7100000000000000000000000000000000000000000000000000000000600052604160045260246000fd5b620001a08262000155565b810181811067ffffffffffffffff82111715620001c257620001c162000166565b5b80604052505050565b6000620001d762000137565b9050620001e5828262000195565b919050565b600067ffffffffffffffff82111562000208576200020762000166565b5b620002138262000155565b9050602081019050919050565b60005b838110156200024057808201518184015260208101905062000223565b60008484015250505050565b6000620002636200025d84620001ea565b620001cb565b90508281526020810184848401111562000282576200028162000150565b5b6200028f84828562000220565b509392505050565b600082601f830112620002af57620002ae6200014b565b5b8151620002c18482602086016200024c565b91505092915050565b6000819050919050565b620002df81620002ca565b8114620002eb57600080fd5b50565b600081519050620002ff81620002d4565b92915050565b600073ffffffffffffffffffffffffffffffffffffffff82169050919050565b6000620003328262000305565b9050919050565b620003448162000325565b81146200035057600080fd5b50565b600081519050620003648162000339565b92915050565b60008060008060008060c087890312156200038a576200038962000141565b5b600087015167ffffffffffffffff811115620003ab57620003aa62000146565b5b620003b989828a0162000297565b965050602087015167ffffffffffffffff811115620003dd57620003dc62000146565b5b620003eb89828a0162000297565b9550506040620003fe89828a01620002ee565b945050606087015167ffffffffffffffff81111562000422576200042162000146565b5b6200043089828a0162000297565b93505060806200044389828a0162000353565b92505060a087015167ffffffffffffffff81111562000467576200046662000146565b5b6200047589828a0162000297565b9150509295509295509295565b600081519050919050565b7f4e487b7100000000000000000000000000000000000000000000000000000000600052602260045260246000fd5b60006002820490506001821680620004d557607f821691505b602082108103620004eb57620004ea6200048d565b5b50919050565b60008190508160005260206000209050919050565b60006020601f8301049050919050565b600082821b905092915050565b600060088302620005557fffffffffffffffffffffffffffffffffffffffffffffffffffffffffffffffff8262000516565b62000561868362000516565b95508019841693508086168417925050509392505050565b6000819050919050565b6000620005a46200059e6200059884620002ca565b62000579565b620002ca565b9050919050565b6000819050919050565b620005c08362000583565b620005d8620005cf82620005ab565b84845462000523565b825550505050565b600090565b620005ef620005e0565b620005fc818484620005b5565b505050565b5b81811015620006245762000618600082620005e5565b60018101905062000602565b5050565b601f82111562000673576200063d81620004f1565b620006488462000506565b8101602085101562000658578190505b62000670620006678562000506565b83018262000601565b50505b505050565b600082821c905092915050565b6000620006986000198460080262000678565b1980831691505092915050565b6000620006b3838362000685565b9150826002028217905092915050565b620006ce8262000482565b67ffffffffffffffff811115620006ea57620006e962000166565b5b620006f68254620004bc565b6200070382828562000628565b600060209050601f8311600181146200073b576000841562000726578287015190505b620007328582620006a5565b865550620007a2565b601f1984166200074b86620004f1565b60005b8281101562000775578489015182556001820191506020850194506020810190506200074e565b8683101562000795578489015162000791601f89168262000685565b8355505b6001600288020188555050505b505050505050565b61172c80620007ba6000396000f3fe6080604052600436106100dd5760003560e01c80637150d8ae1161007f578063e44368d811610059578063e44368d81461028e578063f088d547146102cb578063f3ccaac0146102e7578063fe25e00a14610312576100dd565b80637150d8ae1461020d5780637284e41614610238578063c36c789914610263576100dd565b8063325a19f1116100bb578063325a19f11461016157806334976b9b1461018c57806338af3eed146101b75780634a79d50c146101e2576100dd565b806309b67f8e146100e257806318bad2171461010b57806328f371aa14610136575b600080fd5b3480156100ee57600080fd5b5061010960048036038101906101049190610d8a565b61033d565b005b34801561011757600080fd5b5061012061065a565b60405161012d9190610e47565b60405180910390f35b34801561014257600080fd5b5061014b6106e8565b6040516101589190610e78565b60405180910390f35b34801561016d57600080fd5b506101766106fb565b6040516101839190610eac565b60405180910390f35b34801561019857600080fd5b506101a1610701565b6040516101ae9190610e78565b60405180910390f35b3480156101c357600080fd5b506101cc610714565b6040516101d99190610f08565b60405180910390f35b3480156101ee57600080fd5b506101f761073a565b6040516102049190610e47565b60405180910390f35b34801561021957600080fd5b506102226107c8565b60405161022f9190610f08565b60405180910390f35b34801561024457600080fd5b5061024d6107ee565b60405161025a9190610e47565b60405180910390f35b34801561026f57600080fd5b5061027861087c565b6040516102859190610eac565b60405180910390f35b34801561029a57600080fd5b506102b560048036038101906102b09190610f59565b610882565b6040516102c29190610eac565b60405180910390f35b6102e560048036038101906102e09190610fb2565b61095e565b005b3480156102f357600080fd5b506102fc610c40565b6040516103099190610e47565b60405180910390f35b34801561031e57600080fd5b50610327610cce565b6040516103349190610f08565b60405180910390f35b610345610cf4565b60011515600a60149054906101000a900460ff1615151461039b576040517f08c379a00000000000000000000000000000000000000000000000000000000081526004016103929061102b565b60405180910390fd5b3373ffffffffffffffffffffffffffffffffffffffff16600760009054906101000a900473ffffffffffffffffffffffffffffffffffffffff1673ffffffffffffffffffffffffffffffffffffffff161461042b576040517f08c379a000000000000000000000000000000000000000000000000000000000815260040161042290611097565b60405180910390fd5b60004790506001151582151503610563576000600160009054906101000a900473ffffffffffffffffffffffffffffffffffffffff1673ffffffffffffffffffffffffffffffffffffffff16826040516104849061110e565b60006040518083038185875af1925050503d80600081146104c1576040519150601f19603f3d011682016040523d82523d6000602084013e6104c6565b606091505b505090508061050a576040517f08c379a00000000000000000000000000000000000000000000000000000000081526004016105019061116f565b60405180910390fd5b7f7b39c92a7e1a86e846edaeff6eba715a046352c596794c2a374269c126a99768823360405161053b92919061118f565b60405180910390a160018060146101000a81548160ff0219169083151502179055505061064e565b6000600660009054906101000a900473ffffffffffffffffffffffffffffffffffffffff1673ffffffffffffffffffffffffffffffffffffffff16826040516105ab90611204565b60006040518083038185875af1925050503d80600081146105e8576040519150601f19603f3d011682016040523d82523d6000602084013e6105ed565b606091505b5050905080610631576040517f08c379a00000000000000000000000000000000000000000000000000000000081526004016106289061116f565b60405180910390fd5b6000600160146101000a81548160ff021916908315150217905550505b50610657610d43565b50565b6009805461066790611248565b80601f016020809104026020016040519081016040528092919081815260200182805461069390611248565b80156106e05780601f106106b5576101008083540402835291602001916106e0565b820191906000526020600020905b8154815290600101906020018083116106c357829003601f168201915b505050505081565b600160149054906101000a900460ff1681565b60085481565b600a60149054906101000a900460ff1681565b600160009054906101000a900473ffffffffffffffffffffffffffffffffffffffff1681565b6002805461074790611248565b80601f016020809104026020016040519081016040528092919081815260200182805461077390611248565b80156107c05780601f10610795576101008083540402835291602001916107c0565b820191906000526020600020905b8154815290600101906020018083116107a357829003601f168201915b505050505081565b600660009054906101000a900473ffffffffffffffffffffffffffffffffffffffff1681565b600380546107fb90611248565b80601f016020809104026020016040519081016040528092919081815260200182805461082790611248565b80156108745780601f1061084957610100808354040283529160200191610874565b820191906000526020600020905b81548152906001019060200180831161085757829003601f168201915b505050505081565b60045481565b600080600a60009054906101000a900473ffffffffffffffffffffffffffffffffffffffff1673ffffffffffffffffffffffffffffffffffffffff1663feaf968c6040518163ffffffff1660e01b815260040160a060405180830381865afa1580156108f2573d6000803e3d6000fd5b505050506040513d601f19601f8201168201806040525081019061091691906112fc565b5050509150506000819050600081670de0b6b3a76400006305f5e1008761093d91906113a6565b61094791906113a6565b6109519190611417565b9050809350505050919050565b610966610cf4565b600073ffffffffffffffffffffffffffffffffffffffff168173ffffffffffffffffffffffffffffffffffffffff16036109d5576040517f08c379a00000000000000000000000000000000000000000000000000000000081526004016109cc90611494565b60405180910390fd5b60001515600a60149054906101000a900460ff16151514610a2b576040517f08c379a0000000000000000000000000000000000000000000000000000000008152600401610a2290611500565b60405180910390fd5b600160009054906101000a900473ffffffffffffffffffffffffffffffffffffffff1673ffffffffffffffffffffffffffffffffffffffff163373ffffffffffffffffffffffffffffffffffffffff1603610abb576040517f08c379a0000000000000000000000000000000000000000000000000000000008152600401610ab29061156c565b60405180910390fd5b8073ffffffffffffffffffffffffffffffffffffffff16600160009054906101000a900473ffffffffffffffffffffffffffffffffffffffff1673ffffffffffffffffffffffffffffffffffffffff1603610b4b576040517f08c379a0000000000000000000000000000000000000000000000000000000008152600401610b42906115d8565b60405180910390fd5b610b56600454610882565b341015610b98576040517f08c379a0000000000000000000000000000000000000000000000000000000008152600401610b8f9061166a565b60405180910390fd5b33600660006101000a81548173ffffffffffffffffffffffffffffffffffffffff021916908373ffffffffffffffffffffffffffffffffffffffff16021790555080600760006101000a81548173ffffffffffffffffffffffffffffffffffffffff021916908373ffffffffffffffffffffffffffffffffffffffff1602179055506001600a60146101000a81548160ff021916908315150217905550610c3d610d43565b50565b60058054610c4d90611248565b80601f0160208091040260200160405190810160405280929190818152602001828054610c7990611248565b8015610cc65780601f10610c9b57610100808354040283529160200191610cc6565b820191906000526020600020905b815481529060010190602001808311610ca957829003601f168201915b505050505081565b600760009054906101000a900473ffffffffffffffffffffffffffffffffffffffff1681565b600260005403610d39576040517f08c379a0000000000000000000000000000000000000000000000000000000008152600401610d30906116d6565b60405180910390fd5b6002600081905550565b6001600081905550565b600080fd5b60008115159050919050565b610d6781610d52565b8114610d7257600080fd5b50565b600081359050610d8481610d5e565b92915050565b600060208284031215610da057610d9f610d4d565b5b6000610dae84828501610d75565b91505092915050565b600081519050919050565b600082825260208201905092915050565b60005b83811015610df1578082015181840152602081019050610dd6565b60008484015250505050565b6000601f19601f8301169050919050565b6000610e1982610db7565b610e238185610dc2565b9350610e33818560208601610dd3565b610e3c81610dfd565b840191505092915050565b60006020820190508181036000830152610e618184610e0e565b905092915050565b610e7281610d52565b82525050565b6000602082019050610e8d6000830184610e69565b92915050565b6000819050919050565b610ea681610e93565b82525050565b6000602082019050610ec16000830184610e9d565b92915050565b600073ffffffffffffffffffffffffffffffffffffffff82169050919050565b6000610ef282610ec7565b9050919050565b610f0281610ee7565b82525050565b6000602082019050610f1d6000830184610ef9565b92915050565b6000819050919050565b610f3681610f23565b8114610f4157600080fd5b50565b600081359050610f5381610f2d565b92915050565b600060208284031215610f6f57610f6e610d4d565b5b6000610f7d84828501610f44565b91505092915050565b610f8f81610ee7565b8114610f9a57600080fd5b50565b600081359050610fac81610f86565b92915050565b600060208284031215610fc857610fc7610d4d565b5b6000610fd684828501610f9d565b91505092915050565b7f50726f64756374206e6f742079657420626f756768742e000000000000000000600082015250565b6000611015601783610dc2565b915061102082610fdf565b602082019050919050565b6000602082019050818103600083015261104481611008565b9050919050565b7f4f6e6c7920617262697465722063616e20617070726f76652e00000000000000600082015250565b6000611081601983610dc2565b915061108c8261104b565b602082019050919050565b600060208201905081810360008301526110b081611074565b9050919050565b600081905092915050565b7f596f75722070726f6475637420736f6c642e0000000000000000000000000000600082015250565b60006110f86012836110b7565b9150611103826110c2565b601282019050919050565b6000611119826110eb565b9150819050919050565b7f4661696c656420746f2073656e64204574686572000000000000000000000000600082015250565b6000611159601483610dc2565b915061116482611123565b602082019050919050565b600060208201905081810360008301526111888161114c565b9050919050565b60006040820190506111a46000830185610e9d565b6111b16020830184610ef9565b9392505050565b7f5468652070726f64756374207761736e277420636f72726563742e0000000000600082015250565b60006111ee601b836110b7565b91506111f9826111b8565b601b82019050919050565b600061120f826111e1565b9150819050919050565b7f4e487b7100000000000000000000000000000000000000000000000000000000600052602260045260246000fd5b6000600282049050600182168061126057607f821691505b60208210810361127357611272611219565b5b50919050565b600069ffffffffffffffffffff82169050919050565b61129881611279565b81146112a357600080fd5b50565b6000815190506112b58161128f565b92915050565b6000815190506112ca81610f2d565b92915050565b6112d981610e93565b81146112e457600080fd5b50565b6000815190506112f6816112d0565b92915050565b600080600080600060a0868803121561131857611317610d4d565b5b6000611326888289016112a6565b9550506020611337888289016112bb565b9450506040611348888289016112e7565b9350506060611359888289016112e7565b925050608061136a888289016112a6565b9150509295509295909350565b7f4e487b7100000000000000000000000000000000000000000000000000000000600052601160045260246000fd5b60006113b182610e93565b91506113bc83610e93565b92508282026113ca81610e93565b915082820484148315176113e1576113e0611377565b5b5092915050565b7f4e487b7100000000000000000000000000000000000000000000000000000000600052601260045260246000fd5b600061142282610e93565b915061142d83610e93565b92508261143d5761143c6113e8565b5b828204905092915050565b7f417262697465722063616e6e6f74206265206e756c6c00000000000000000000600082015250565b600061147e601683610dc2565b915061148982611448565b602082019050919050565b600060208201905081810360008301526114ad81611471565b9050919050565b7f5468652070726f6475637420616c726561647920626f756768742e0000000000600082015250565b60006114ea601b83610dc2565b91506114f5826114b4565b602082019050919050565b60006020820190508181036000830152611519816114dd565b9050919050565b7f53656c6c65722063616e2774206275792e000000000000000000000000000000600082015250565b6000611556601183610dc2565b915061156182611520565b602082019050919050565b6000602082019050818103600083015261158581611549565b9050919050565b7f53656c6c65722063616e2774206265206120617262697465722e000000000000600082015250565b60006115c2601a83610dc2565b91506115cd8261158c565b602082019050919050565b600060208201905081810360008301526115f1816115b5565b9050919050565b7f496e73756666696369656e7420746f6b656e20616d6f756e742070726f76696460008201527f65642e0000000000000000000000000000000000000000000000000000000000602082015250565b6000611654602383610dc2565b915061165f826115f8565b604082019050919050565b6000602082019050818103600083015261168381611647565b9050919050565b7f5265656e7472616e637947756172643a207265656e7472616e742063616c6c00600082015250565b60006116c0601f83610dc2565b91506116cb8261168a565b602082019050919050565b600060208201905081810360008301526116ef816116b3565b905091905056fea2646970667358221220a17898a2ab200ff874ccc70cef513b94e867b14437b1474e8dde95ace1c88c1264736f6c63430008110033a2646970667358221220b582878a0eeb437d0e687bce79f5671c53e19746ef69f0a89dedd9805b7fb3e764736f6c63430008110033",
  "linkReferences": {},
  "deployedLinkReferences": {}
}